:020000040800F2
:10000000F04D0020CD02000881240008831F000865
:100010007D240008091E0008A3320008000000002B
:100020000000000000000000000000003502000891
:10003000511E00080000000079020008C9290008CC
:10004000E7020008E7020008E7020008E7020008EC
:10005000E7020008E7020008E7020008E7020008DC
:10006000E7020008E7020008E7020008E7020008CC
:10007000E7020008E7020008E7020008E7020008BC
:10008000E7020008E7020008E7020008E7020008AC
:10009000E7020008E7020008E7020008E70200089C
:1000A000E7020008E7020008E7020008E70200088C
:1000B000E7020008392A0008652A0008E70200085C
:1000C000E7020008E7020008E7020008E70200086C
:1000D000E7020008552F0008E7020008DD2F00089E
:1000E000E7020008E7020008E702000800F002F853
:1000F00000F090F80AA090E8000C82448344AAF132
:100100000107DA4501D100F085F8AFF2090EBAE82F
:100110000F0013F0010F18BFFB1A43F0010318473B
:100120004C6500006C650000103A24BF78C878C1A7
:10013000FAD8520724BF30C830C144BF04680C60ED
:10014000704700000023002400250026103A28BF35
:1001500078C1FBD8520728BF30C148BF0B60704739
:100160006E2900F0DA83702900F0AB81662906F071
:10017000F981652906F0F681672906F0F381612986
:1001800006F0F28103681B0A28BF41F0800169294B
:1001900000F01C81642900F01981752900F0168196
:1001A0006F2900F0D284782900F07781E92900F0E6
:1001B0006D84E42900F06A84F52900F06784EF2952
:1001C00000F0CF84F82900F076810368DB0928BFAE
:1001D00041F08001632900F0DC83732900F0E183A2
:1001E000E32901F0D780F32901F0DC80002070477B
:1001F0001FB501F02DF904000020002106F09CF944
:10020000401C60600020002106F080F9E0601FBD06
:1002100010B510BD01F0EEF81146FFF7E9FF03F04D
:1002200037F901F0CBF903B4FFF7F2FF03BC03F099
:1002300055F80000224B19680868B0E8F00F80F309
:100240000988BFF36F8F4FF0000080F311884EF0E4
:100250000D0E70470000000006480068006880F33B
:10026000088862B661B6BFF34F8FBFF36F8F00DFB0
:1002700000BF00BF08ED00E0EFF30980BFF36F8F10
:100280000F4B1A6820E9F00F106008B54FF05000CE
:1002900080F31188BFF34F8FBFF36F8F04F0CCFF53
:1002A0004FF0000080F31188BDE808401968086825
:1002B000B0E8F00F80F30988BFF36F8F704700BF7D
:1002C0007C000020EFF3058070470000094880475C
:1002D00009480047FEE7FEE7FEE7FEE7FEE7FEE728
:1002E000FEE7FEE7FEE7FEE704480549054A064B40
:1002F00070470000D9290008ED000008F0470020F1
:10030000F04D0020F0490020F04900207047000027
:100310001CB50C46064B7B4469460090204600F015
:1003200016FB04460020694600F024FB20461CBD55
:100330005B0600000FB4044910B503AA029800F050
:1003400035FB10BC5DF814FB4C0000200FB41CB54D
:10035000084B06AA7B4469460090059800F0F7FA1E
:1003600004460020694600F005FB20461CBC5DF8F1
:1003700014FB00001D06000070B50C460546012A5E
:1003800005D02878800600D5EA69002302E0012321
:1003900005E05B1C934202D2E05C0028F9D1A86919
:1003A000E618C01AA861286A18442862284600F096
:1003B00022FA04E0D5E9012114F8010B9047B44278
:1003C000F8D3284600F02DFA70BD00002DE9F04169
:1003D0000646002410687529314616A510D000F095
:1003E00031FA002802DA404213A507E031688A0793
:1003F00001D512A502E0490704D511A5012401E0A9
:1004000000F029FA00210A2206F1240709E0B0FBD6
:10041000F2FCB0FBF2F302FB1C00303078541846BB
:10042000491C0028F3D123462A463046BDE8F04156
:1004300000F01ABA000000002D0000002B000000A0
:1004400020000000F0B40D460188090502D5214CBA
:100450007C4402E01F4C7C440E34002100F1240651
:1004600008E002F00F071209E75D42EA03721B0978
:100470007754491C52EA0307F3D10278002312078C
:1004800004D5702D06D009B1022311342246F0BCE8
:1004900000F0EAB901231034F8E770B504460D46C0
:1004A0002146106800F0D7F9024629462046BDE8EB
:1004B00070400023C6E7D21D22F00703D3E90023D2
:1004C000C0E70368126843F0200303600823C36198
:1004D0000023B7E7186100002DE9F05F8946044664
:1004E0004FF0000ADFF874B1FB44C0F820A02046AA
:1004F000E1688847002874D0252806D0D4E9012176
:100500009047206A401C2062F1E700265F462046A3
:10051000E16888472028054607DB312D05D2781988
:1005200010F8200C08B10643F1E7B00701D526F01A
:100530000406C4F81CA00027C4F818A02A2D09D06E
:10054000284602F0C4FE38B304EB8708303DC8F8F3
:10055000185019E059F8041B204604EB87029161FA
:10056000E1688847012F054618D1E069002820DAA4
:1005700026F020061DE0D8F8180000EB800005EBFF
:1005800040003038C8F818002046E1688847054622
:1005900002F09DFE0028EED1012F0AD02E2D08D1A9
:1005A0002046E16888477F1C0546022F46F020065A
:1005B000C4DBA069002803DA404246F00106A061CE
:1005C000F00701D026F010066C2D0BD0682D09D055
:1005D0004C2D39D06A2D35D0742D35D07A2D33D0AD
:1005E00016E038E0E1682F4620468847B8420546C5
:1005F00009D16C2F26D04FF48060E1680643204675
:100600008847054604E06C2F1AD04FF480700643EB
:100610000DB3A5F14100192802D8203546F4006633
:100620004A462946204626604E46FFF799FD80B18E
:1006300001280BD0F61D26F0070000F1080956E747
:100640004020E4E78020D8E70020D6E706F104093F
:100650004DE7284652E7206ABDE8F09FA8600000F9
:1006600030B505460B462A4613F8014B12F8010B2C
:1006700008B1A042F8D01CB1002802D06D1CF1E7EF
:10068000284630BD10B5431C02E010F8011B71B1C3
:100690008107FAD14FF0013202C88C1A8C4314EA58
:1006A000C211F9D0C01A0A0603D0C01E10BDC01A6C
:1006B00010BD0A0401D0801E10BD0902FCD0401EEE
:1006C00010BD032A40F2308010F0030C00F01580BA
:1006D00011F8013BBCF1020F624498BF11F801CB45
:1006E00000F8013B38BF11F8013BA2F1040298BFAA
:1006F00000F801CB38BF00F8013B11F0030300F014
:100700003B82083AC0F0088051F8043B083A51F89F
:1007100004CBA0E80810F5E7121D5CBF51F8043BBC
:1007200040F8043BAFF30080D20724BF11F8013B2F
:1007300011F801CB48BF11F8012B24BF00F8013B91
:1007400000F801CB48BF00F8012B704702F0FF030F
:1007500043EA032242EA024200F002B84FF00002EC
:100760000429C0F0128010F0030C00F01B80CCF1C3
:10077000040CBCF1020F18BF00F8012BA8BF20F831
:10078000022BA1EB0C0100F00DB85FEAC17C24BF85
:1007900000F8012B00F8012B48BF00F8012B70472F
:1007A0004FF0000200B5134694469646203922BF0A
:1007B000A0E80C50A0E80C50B1F12001BFF4F7AF55
:1007C000090728BFA0E80C5048BF0CC05DF804EB37
:1007D000890028BF40F8042B08BF704748BF20F8A5
:1007E000022B11F0804F18BF00F8012B70477047A3
:1007F00070477047704770B5044685690068C10648
:1008000001D5302600E02026C00707D070BDD4E90E
:10081000012130469047206A401C20626D1EF6D5AB
:1008200070BD70B5044685690078C00707D170BDFA
:10083000D4E9012120209047206A401C20626D1ECF
:10084000F6D570BD09684A0501D540B27047C905A3
:10085000FCD500B2704709684A0501D5C0B270479F
:10086000C905FCD580B270472DE9F0470D46994681
:100870009246044600F124080168880604D5E06920
:1008800021F01001216000E00120A84201DD471B9A
:1008900000E00027A1697A1902EB0900081AA0619B
:1008A0002078C00602D42046FFF7A5FF002608E006
:1008B000D4E901211AF806009047206A401C761CF2
:1008C00020624E45F4DB2078C0060AD52046FFF7AB
:1008D00092FF06E0D4E9012130209047206A401CB5
:1008E0002062381EA7F10107F4DC07E0D4E90121FA
:1008F00018F805009047206A401C2062281EA5F1C8
:100900000105F3DC2046FFF78CFF2078000602D5B6
:100910000220BDE8F0870120FBE711680268006A49
:10092000530501D508700AE0D30501D5088006E01B
:10093000130603D5C217C1E9000200E008600120D8
:100940007047000001694A1C02610878704700B5D1
:100950008FB0CDE901310021059105497944CDE9F8
:10096000031011466846FFF7B7FD0FB000BD000049
:10097000E5FFFFFF0A6802F8010B0A60704710B537
:10098000436913B1AFF3008001E0FFF7F5FC0120EC
:1009900010BD127800F124010A7000224A70012271
:1009A000EDE711684FF0FF32E9E70000074B70B543
:1009B0000D467B44FFF7CBFF0446284600F0F6FCCB
:1009C00010B14FF0FF3070BD204670BD272A0000E7
:1009D0002DE9FF5F15468A460446DFF8AC80F844EF
:1009E0000027D8E900103E46CDE9001010E03AF8A3
:1009F00016106A4602A800F0DDFC411C07D02178E1
:100A0000890603D5E269391891420DD80744761C4E
:100A10002078800602D5E069B84205DDAE42E6DB0B
:100A20003AF816000028E2D1A069C01BA061204658
:100A3000FFF7E1FED8E90010CDE90010002017E033
:100A40003AF818106A4602A800F0B4FCB0F1FF3F73
:100A500081460BD000250DF1080B05E0D4E90121FA
:100A60001BF8050090476D1C4D45F7D308F10100B8
:100A7000B0428046E4DB206A384420622046FFF71B
:100A8000D0FEBDE8FF9F0000C65B00002DE9F041ED
:100A90008046D21D22F007020025D2E90002F52986
:100AA00015A614D0011E72F1000106DA0023D0EB66
:100AB000030063EB020211A608E0D8F800108B07D0
:100AC00001D50FA602E0490701D50EA60125114662
:100AD000002408F1240704E000F080F830323A5591
:100AE000641C50EA0102F7D12B46324621464046AB
:100AF000BDE8F041FFF7B8BE000000002D00000087
:100B00002B0000002000000030B4002100F124047C
:100B100008E002F00705D208303542EA4372DB08EC
:100B20006554491C52EA0305F3D10468002310A25E
:100B3000250707D5A40600D421B1C46901230DA25D
:100B4000641EC46130BCFFF78FBE10B50446214659
:100B50001068FFF780FE02462046BDE810400023E3
:100B6000D2E7D21D22F00701D1E90023CCE7000033
:100B7000000000003000000010B5203AC0F00B80EB
:100B8000B1E81850203AA0E81850B1E81850A0E891
:100B90001850BFF4F5AF5FEA027C24BFB1E81850EB
:100BA000A0E8185044BF18C918C0BDE810405FEA5B
:100BB000827C24BF51F8043B40F8043B08BF7047D7
:100BC000D20728BF31F8023B48BF11F8012B28BFDC
:100BD00020F8023B48BF00F8012B704730B5B0F158
:100BE0000A024FEA900E71F100034EEA817EB0EBEB
:100BF0000E0061EB91014FEA101E4EEA017E10EBF0
:100C00000E0041EB11114FEA102E4EEA016E10EB6F
:100C10000E0041EB11214FEA104E4EEA014E10EB4F
:100C20000E0041EB1141401841F100014FEAD000A4
:100C300040EA41704FEAD10110EB80054FEA810490
:100C400044EA907444EB01046D1944EB0404521B14
:100C5000A3414FF0000348BF0A3200D530BD401C0D
:100C600041F1000130BD70472DE9FF4F0C461E4693
:100C70004FF0FF378BB0D2E90001DDF860800A90B9
:100C80008A46C1F30A5505B93D46002108464FF092
:100C90000000BAF1000F00F4400005DA00EB80001C
:100CA0004FF4400101EA50004FEA9059B9F1010FA9
:100CB00000DDB9460A9850EA4A000ED044F61050BA
:100CC000A5F2FF3545432F14B8F1000F1ED0754231
:100CD000291E1EDDC9F100021CE0B8F1010F4FF022
:100CE000000001D0302103E0F24305E02154401C14
:100CF000B042FBDB30460022002121540B99C1F8A1
:100D00000880C1E900200FB0BDE8F08FBD1B6D1C4D
:100D1000DEE74A4600DA694206A800F0DDFB06ABD2
:100D200093E8070003AB83E8070050460A9900F0F8
:100D300093FC8DE80700A0F500501F380090039841
:100D4000002D0ADD42F21F014A460844002303A990
:100D50000390684600F0FCFE09E0A0F500504A460A
:100D60001F38002303A90390684600F006FF8DE8B2
:100D700007000004000C03D04FF0FF30410800E0F2
:100D80001046B8F1000F03D00022009215461EE075
:100D9000751E05D4FFF722FF303262556D1EF9D55E
:100DA000B3460122084302D000227F1C04E02078D1
:100DB000302801D100227F1E002A099784D01DE02F
:100DC000112D07DAFFF70AFF303262556D1C50EA29
:100DD0000102F5D1084302D00098C8B10EE000210D
:100DE000681E05E0235C625C63542254401E491C6B
:100DF0008142F7DBAB46A81B401E0990002004F897
:100E00000B000B98099AC0F80880C0E9002B7AE71C
:100E100011264FF0000857E72DE9F04F88460446A9
:100E2000D21D22F0070191B0D1E90001CDE90A01FC
:100E300002F039FA02460B98C00F01D02D2007E0CE
:100E40002068810701D52B2002E0202101EAC000A3
:100E5000032A099001D0072A05DB034641462046B4
:100E600000F0FAFA0BE12078800601D5E06900E095
:100E70000620B8F1650F814606D0B8F1660F18D08C
:100E8000B8F1670F70D131E00020B9F1110F009077
:100E900001DB112301E009F101030AAA01A90CA851
:100EA000FFF7E2FEDDE90C70002609F1010583463B
:100EB00047E001204B4600904FF000470AAA01A9E5
:100EC0000CA8FFF7D1FEDDE90DB00C995D460026B8
:100ED00010B909F101000D18B9EB050003D4C0F1F8
:100EE000FF3609F10105A5EB09002BE0B9F1010F6F
:100EF00001DA4FF001090020B9F1110F00904846C6
:100F000001DD112300E003460AAA01A90CA8FFF79E
:100F1000ABFEDDE90C704D460026834620780007C5
:100F20000AD4AB4500DA5D4601A8012D04DD411964
:100F300011F8011C302907D04F4502DA17F1040FD0
:100F400004DA012082460FE06D1EEEE7002F02DC7E
:100F5000ED1B3E4403E0781CA84200DD7D1CB81B5D
:100F600000F1010A4FF000472078000703D4AA459A
:100F700001DB4FF0FF3A0021B7F1004F0DF14308BC
:100F80008DF8431024D002202B23002F01DA7F425A
:100F90002D230A21021EA0F1010000DC5FB197FBA6
:100FA000F1FC97FBF1F201FB1C7C17460CF1300CB5
:100FB00008F801CDEEE7A8F10100037021880905CA
:100FC00001D5452100E06521A0F1010800F8011CD0
:100FD00009980FA9A1EB0807FF1D00B101204119D5
:100FE00001EBEA70A1693844081A401EA06120781C
:100FF000C00602D42046FFF7FEFB099828B1D4E9C9
:1010000001219047206A401C20622078C00622D52A
:101010002046FFF7F0FB1EE0002E04DBB34502DDA7
:1010200001A8805D00E03020D4E901219047206ACA
:10103000401C2062761CAAF101005FEA000A0AD176
:1010400000F006FAC0680168405CD4E901219047CD
:10105000206A401C2062281EA5F10105DCDC07E0A7
:10106000D4E9012118F8010B9047206A401C206246
:10107000381EA7F10107F3DC2046FFF7D2FB03205F
:1010800011B041E62DE9F04F04460D46D21D22F085
:10109000070089B0D0E900974846394602F003F9C5
:1010A0000246F80F01D02D2307E02068810701D503
:1010B0002B2302E0202101EAC0038DF820300BB180
:1010C000012000E00020032A824601D0072A04DB29
:1010D0002946204600F0C0F93FE12078800601D47F
:1010E0000D2500E0E569C7F30A560D2D49DA002108
:1010F0004FEA175B08464FF00000002F00F4400055
:1011000007DA00EB80004FF4400100EBD07001EAF9
:1011100060008115012901DD4FF0FF3100224FEA07
:10112000850CBCF1180F06D31346ACF118004FF034
:101130008052C24003E04FF4801323FA0CF30CF109
:101140000C0CBCF1200F04D3ACF1200C09FA0CF00C
:1011500001E007FA0CF000294FF0004801DD18B952
:101160000FE00ED140450CD319EB02095F4121B9C4
:10117000404502D19F4329EA0209BBEB175F00D02B
:10118000761C2088000502D57B48784402E07A4826
:101190007844193808AA302302F80A30037C0AF18F
:1011A0000101002E0AF1020A53546A4602DC4FF094
:1011B000300101E04FF031014FF001088DF80010CF
:1011C00002D0A6F2FF3603E059EA470100D06B4E89
:1011D000002D02DC2178090704D54FF002082E21EA
:1011E0008DF80110C44600210BE0C7F303433F0113
:1011F000C35C491C6D1E02F80830052908F101087E
:1012000001DA002DF1DC00210CE000EB1973491C20
:101210001B786D1E082902F808304FEA091908F1F9
:10122000010801DA002DF0DC21688B0602D516E0FA
:10123000A8F10108E04505DD02EB080313F8013CC5
:10124000302BF5D0B8F1000F09DD02EB080313F8DD
:10125000013C2E2B03D1090701D4A8F10108002D70
:1012600005DD3E2102F808106D1E08F10108407CE2
:10127000002E02F8080008F1010804DA2D20764259
:1012800002F8080002E02B2002F808000A214FF4BF
:101290007A70864208F101080BDB96FBF0F33033DD
:1012A00002F8083096FBF0F308F1010800FB136622
:1012B00001E0642E0CDB642096FBF0F3303302F87F
:1012C000083096FBF0F308F1010800FB136601E01B
:1012D0000A2E06DB96FBF1F0303002F8080008F128
:1012E000010896FBF1F001FB1060303002F80800B5
:1012F000A16908F1010808EB050202EB0A00081ACF
:10130000A0612078C00602D42046FFF774FA216A53
:1013100008AE01EB0A00206204E0D4E9012116F8CE
:10132000010B9047BAF1010AF7D22078C00602D526
:101330002046FFF760FA6E4609E016F8010B3E28DA
:101340000FD0D4E901219047206A401C2062B8F1F7
:101350000108F2D22046FFF764FA09B00320BDE885
:10136000F08F206A2844206203E0D4E90121302074
:1013700090476D1EEBD3F8E73554000002FCFFFFE9
:1013800010B5436913B1AFF3008001E0FFF720FB14
:10139000012010BD128800F1240182840022C28441
:1013A0000122EDE711684FF0FF32E9E7007B00F022
:1013B0008000704770B516460C46054600F040F8B0
:1013C000036893F80101012806D0FF2C0FD8185D9F
:1013D00068B101202C7070BDD3F807013246214658
:1013E00003F2071303442846BDE8704018474FF046
:1013F000FF3070BD754600F0EBF8AE46050069465B
:10140000534620F00700854618B020B5FEF76CFF64
:10141000BDE820404FF000064FF000074FF00008F5
:101420004FF0000B21F00701AC46ACE8C009ACE876
:10143000C009ACE8C009ACE8C0098D46704700009F
:1014400010B500F005F8001D10BD00BFED50000004
:1014500000487047AC4700202DE9F0411F46044684
:1014600003260168072A01F4006004DB08B116A511
:1014700005E016A503E008B115A500E015A521F0CB
:1014800010002060A069C01EA0610FB1401EA061C5
:101490002046FFF7B0F94FB1D4E901213846904713
:1014A000206A401C2062C01C206206E0206AFAE725
:1014B000D4E9012115F8010B9047761EF8D2204699
:1014C000FFF7AFF9BDE8F0814E414E006E616E004E
:1014D000494E4600696E66002DE9F0478146164682
:1014E0008AB0354878440DC88DE80D0032487844FC
:1014F000801C03AC0DC884E80D0041F69B30084405
:10150000372190FBF1F290FBF1F5A5F1800501FB8D
:1015100012041B3C02D56442012000E00020DFF8E9
:1015200098A080460027FA44AAF1BE0A0EE0E00720
:101530000AD03246684607EB470101230AEB8101D6
:1015400000F01BFB8DE8070064107F1C002CEED11F
:10155000194F7F44AE3F19E0E80715D007EB0410A0
:101560000DF1180A90E80E008AE80E00C068F042FB
:1015700001D1981908903246012306A903A800F06A
:10158000FCFA03AB83E807006D10641C002DE3D167
:101590004FF0010332466946B8F1000F03A802D0AC
:1015A00000F0D6FA01E000F0E8FAC9E90001C9F854
:1015B00008200AB0BDE8F0876C51000010B5044661
:1015C000AFF300802046BDE81040FEF72CBE0000BF
:1015D000004870478C4700204FF0013C50F8042B26
:1015E00051F8043B9A4221D1A2EB0C03934313EA36
:1015F000CC1317D150F8042B51F8043B9A4215D163
:10160000A2EB0C03934313EACC130BD150F8042B39
:1016100051F8043B9A4209D1A2EB0C03934313EA1D
:10162000CC13DBD04FF00000704700BFD01A01BAD6
:10163000B1FA81F101F0180122FA01F0CB40C1F1B9
:101640002001DBB2C0B2C01A2CFA01F3D11A9143C7
:1016500011EAC311E6D170475FEA400C08BF91F070
:10166000000F4FEA8C234FEAC12243EA51514FEA5F
:101670001C5018BF00F5F0404FEA300018BF41F091
:1016800000415FEA6C5C00F02980BCF1FF3F08BFBD
:1016900040F080407047130C06BF12044FF0100C4E
:1016A0004FF0000C130E04BF12020CF1080C130FC4
:1016B00004BF12010CF1040C930F04BF92000CF153
:1016C000020CD30F04BF52000CF1010C11464FF075
:1016D0000002A0F11F00A0EB0C00704711F0004FBA
:1016E00008BF704731F000413FF4D5AF0B0C06BF87
:1016F00009044FF0100C4FF0000C0B0E04BF090250
:101700000CF1080C0B0F04BF09010CF1040C8B0F3A
:1017100004BF89000CF1020CCB0F04BF49000CF18F
:10172000010CCCF12003A0EB0C0022FA03F302FA27
:101730000CF241EA030100F10100704720F07F4CF8
:1017400080EA030023F07F47ACEB070303F57C53EB
:1017500000F0004003F1FF032DE980494FEA154BEB
:1017600009B44FEA144325EA0B4E24EA03480FF26A
:10177000042606EB132749083E785FEA320203FB92
:101780000667C7F5000707FB06F64FEA54374FEA2E
:10179000D64606F1020607FB066CCCF1005C4FEA68
:1017A0001C472CEA074C07FB06F40CFB06F504EB80
:1017B00015464FEA961634BF00204FF000404FEA1E
:1017C000D13706FB07FC4FEA1C4C0CFB0BF7D21B76
:1017D00003FB0CF761EB07010CFB0EF7B0EB0740C6
:1017E00072EB17420CFB08F734BFA2EB0742B2EBD7
:1017F000074261EB17414FEA0C444FEA910706FBA1
:1018000007FC4FEA1C4C0CFB0BF7B0EBC74072EB2C
:10181000573203FB0CF734BFA2EBC742B2EBC7420F
:1018200061EB57310CFB0EF7B0EBC70072EB577250
:101830000CFB08F734BFA2EBC702B2EBC70261EBA7
:101840005771039F4FEA816141EA921104EBCC0486
:101850004FEAD1374FEA826206FB07FC42EA901258
:101860004FEA80604FEA1C4C0CFB0BF7D21B03FBCA
:101870000CF761EB07010CFB0EF7B0EB074072EBC6
:1018800017420CFB08F734BFA2EB0742B2EB07424A
:1018900061EB17414FEA8C554FEA910704EB9C240A
:1018A00006FB07FC4FEA1C4C0CFB0BF7B0EBC740E8
:1018B00072EB573203FB0CF734BFA2EBC742B2EB1B
:1018C000C74261EB57310CFB0EF7B0EBC70072EB70
:1018D00057720CFB08F734BFA2EBC702B2EBC7028A
:1018E00061EB577115EB4C254FEA816141EA92118A
:1018F0004FEA82624FEAD13742EA901206FB07FCB8
:1019000044F100044FEA80604FEA1C4C0CFB0BF7DB
:10191000D21B03FB0CF761EB07010CFB0EF7B0EBDE
:10192000074072EB17420CFB08F734BFA2EB0742EB
:10193000B2EB074261EB174115EB1C154FEA813101
:1019400041EA92414FEA823242EA90424FEA8030C5
:101950004FEA0C7644F1000448EA03434EEA0B4890
:101960004FF0000EB2EB080C71EB030724BF624688
:1019700039464EEB0E0E4FF0000B00185241494114
:101980004BEB0B0BB2EB080C71EB03077BF1000B7D
:1019900024BF624639464EEB0E0E4FF0000B001886
:1019A000524149414BEB0B0BB2EB080C71EB0307B7
:1019B0007BF1000B24BF624639464EEB0E0E51EA16
:1019C000020718BF46F0010616EB0E7655F100022D
:1019D00054F1000103D5BDE88901BDE80088BDE8E8
:1019E0008901BDE80048B619524141EB0101A3F15C
:1019F0000103704780807F7E7D7C7B7A7978777663
:101A000076757473727171706F6E6E6D6C6C6B6ADB
:101A10006A69686867666665646463636261616079
:101A2000605F5F5E5E5D5D5C5C5B5B5A5A595958F6
:101A30005857575656555555545453535252525160
:101A4000515050504F4F4F4E4E4D4D4D4C4C4C4BB6
:101A50004B4B4A4A4A4949494848484747474746FD
:101A60004646454545444444444343434342424239
:101A700042414141002B9C4630D477002BD01CB50D
:101A80004FEA370703B44FF010004FF01001BAF1DE
:101A9000000F06D0BCF1000FDCBF40F0080040F0A2
:101AA00008014FF000000FBCBDE810400BF1010B26
:101AB000BBF1010F08BF5FEA170722BF12F1010255
:101AC00011F101014FF0004143F1000300F000402B
:101AD00043EA00007047F9D35708D0E746EA0646C4
:101AE00013F1400F4FEA16461FDD13F1200FDFBF41
:101AF00016430A46002120335B42BED0C3F12007C3
:101B000046EA064602FA07F74FEA164646EA07068D
:101B1000C3F1200722FA03F201FA07F721FA03F1D1
:101B20004FF0000342EA0702A7E746EA020646EA48
:101B300006464FEA164646EA0106BCBF46EA064696
:101B4000360C4FF000034FF000024FF0000194E715
:101B50002DE9804C9A46934670B491E8380007C846
:101B600031EA400C48BF34EA430C03D5FFF7E6FDE9
:101B7000FFF780FFF0BCBDE8008C2DE9804C9A4651
:101B8000934670B491E8380007C810F0804F08BF42
:101B900013F0804F03D100F005F8FFF76BFFF0BCA6
:101BA000BDE8008C20F07F4780EA030023F07F4CE3
:101BB00007EB0C03A3F57C5300F00040A3F1FE03F8
:101BC00092F0000F00F0B38095F0000F00F07780E6
:101BD0002DE901494FEA11404FEA144621EA004835
:101BE00000FB06FC24EA064708FB06F607FB08F89C
:101BF00000FB07F718EB06484CEB164C4FEA124B6C
:101C000018EB07484FEA15464CEB174022EA0B4EFB
:101C10000BFB06FC25EA06470EFB06F607FB0EFE4D
:101C20000BFB07F71EEB064E4CEB164C4FF0000675
:101C30001EEB074E4CEB174B18EB0B0840F1000066
:101C400018EB0E0B58EB000840F100008F1A4FF014
:101C500000013CBFC943661B14BFB5EB040C002157
:101C60003CBFC943F61B4FEA17444EEA8E0E27EAE3
:101C700004454FEA1C4704FB07622CEA074C05FBAE
:101C800007F70CFB05F604FB0CFC16EB074642EBD2
:101C9000174216EB0C4642EB1C421BEB060658EBB8
:101CA0000202414146EA9E0601D5BDE80189B61906
:101CB000524141EB0101A3F10103BDE801894FEA63
:101CC00014454FEA114724EA054621EA074C05FB73
:101CD00007F406FB07F70CFB06F105FB0CFC11EB08
:101CE000074144EB17444FEA124711EB0C4144EB18
:101CF0001C4422EA074C05FB07F206FB07F70CFB26
:101D000006F605FB0CFC16EB074642EB174216EBFA
:101D10000C4642EB1C456A1854F1000148BF70475D
:101D2000B619524141EB0101A3F10103704795F04F
:101D3000000F37D04FEA11424FEA144721EA02461A
:101D400024EA074C02FB07F106FB07F70CFB06F43D
:101D500002FB0CFC14EB074441EB17414FEA15471B
:101D600014EB0C4441EB1C4125EA074C02FB07F540
:101D700006FB07F70CFB06F602FB0CFC16EB07460E
:101D800045EB174516EB0C4645EB1C42121951F179
:101D9000000148BF7047B619524141EB0101A3F160
:101DA000010370474FEA14454FEA114724EA0546FC
:101DB00021EA074C05FB07F106FB07F70CFB06F2CF
:101DC0004FF0000605FB0CFC12EB074241EB1741FC
:101DD00012EB0C4251EB1C4148BF7047921841EB8B
:101DE0000101A3F10103704710B50121034800F080
:101DF000BBF808B1012010BD0020FCE7000C014039
:101E000010B502F011FC10BD00BFFEE700200E4926
:101E100008700E480078012804D100200B49087092
:101E20000120704709480078022804D100200749A2
:101E300008700220F5E70548007818B9002003492A
:101E40000870EEE70020ECE7430000203C00002093
:101E500070472DE9F04102460025002600200023AE
:101E60000024002791F803C00CF00F0591F803C07F
:101E70000CF0100CBCF1000F03D091F802C04CEA3A
:101E8000050591F800C0BCF1000F31D014680020A6
:101E90002BE04FF0010C0CFA00F3B1F800C00CEA93
:101EA00003069E4220D183004FF00F0C0CFA03F77B
:101EB000BC4305FA03FC4CEA040491F803C0BCF1EE
:101EC000280F06D14FF0010C0CFA00FCC2F814C028
:101ED0000AE091F803C0BCF1480F05D14FF0010CA6
:101EE0000CFA00FCC2F810C0401C0828D1D31460C2
:101EF000B1F800C0BCF1FF0F34DD546800202EE0C3
:101F000000F1080C4FF0010808FA0CF3B1F800C01A
:101F10000CEA03069E4221D183004FF00F0C0CFA0D
:101F200003F7BC4305FA03FC4CEA040491F803C030
:101F3000BCF1280F05D100F1080C08FA0CF8C2F822
:101F4000148091F803C0BCF1480F07D100F1080CD0
:101F50004FF0010808FA0CF8C2F81080401C08285D
:101F6000CED35460BDE8F0810246002093680B4058
:101F70000BB1012000E00020704741617047016112
:101F8000704700BFFEE700207047000008B5012140
:101F9000102000F01DFB4FF40050ADF800001020A1
:101FA0008DF8030003208DF8020069460448FFF70E
:101FB00050FF4FF400510248FFF7E1FF08BD000059
:101FC0000010014010B5002405E01EA0FEF7B2F994
:101FD000322001F0F7F9FFF707FF0028F5D10120C3
:101FE0001D49086000201D49C1F880011CA0FEF7B2
:101FF000A1F9142001F0E6F91EE01EA0FEF79AF9FF
:102000001FA002F0ABFBC82001F0DCF9FFF7FEFED9
:10201000044621461CA0FEF78DF9022C04D11EA017
:10202000FEF788F9002403E014B91FA0FEF782F937
:1020300040F2DC5001F0C6F9002CDED01EA0FEF705
:1020400079F910BD4C4F52415F436865636BD5FD14
:10205000C3A60D0A000000008481214200802142B5
:10206000BCECB2E24C4F5241CAC7B7F1D4DACFDF71
:102070000D0A0000B7A2CBCD3A41540D0A00000072
:1020800041540D0A000000004C6F72615F5374618F
:1020900074653A25640D0A00BDD3CAD5B5BD455255
:1020A000524F520D0A000000BBB9CEB4BDD3CAD501
:1020B000CDEA0D0A000000004C4F5241BCECB2E2E8
:1020C000B3C9B9A60D0A000008B50121082000F027
:1020D0007FFA10208DF803000220ADF800000320E5
:1020E0008DF8020069460F48FFF7B3FE02210D4844
:1020F000FFF743FF28208DF803000120ADF8000012
:1021000003208DF8020069460648FFF7A2FE012170
:102110000448FFF732FFFFF755FF00F005F80120F4
:1021200008BD0000000C014010B505E053A0FEF70B
:1021300001F9142001F046F9FFF756FE0028F5D109
:1021400001205349086000205249C1F880010A204B
:1021500001F038F950A0FEF7EDF852A000F0C2FAF5
:102160000C2001F02FF953A0FEF7E4F854A000F082
:10217000CBF90C2001F026F954A0FEF7DBF858A0AB
:1021800000F0B0FA0C2001F01DF959A0FEF7D2F8CA
:102190005AA000F0B9F90C2001F014F90C2001F05C
:1021A00011F959A0FEF7C6F85BA000F09BFA0C20CD
:1021B00001F008F95BA0FEF7BDF85EA000F0A4F9FD
:1021C0000C2001F0FFF85EA0FEF7B4F860A000F06C
:1021D00089FA0C2001F0F6F860A0FEF7ABF863A0D6
:1021E00000F092F90C2001F0EDF863A0FEF7A2F8E0
:1021F00065A000F077FA0C2001F0E4F865A0FEF786
:1022000099F868A000F080F90C2001F0DBF868A0D4
:10221000FEF790F86AA000F065FA0C2001F0D2F801
:102220006AA0FEF787F86DA000F06EF90C2001F0AF
:10223000C9F86DA0FEF77EF872A000F053FA0C20EA
:1022400001F0C0F872A0FEF775F878A000F05CF914
:102250000C2001F0B7F878A0FEF76CF87AA000F037
:1022600041FA0C2001F0AEF87AA0FEF763F80020E6
:10227000074908600749C1F8800110BD4C4F524121
:102280005F5365745F4D6F6465D5FDC3A60D0A008D
:1022900084812142008021420D0AC9E8D6C3B5D805
:1022A000D6B73A0041542B414444523D30302C3093
:1022B000300000000D0AB6C1C8A1B5D8D6B73A00A3
:1022C00041542B414444523F000000000D0AC9E82C
:1022D000D6C3D0C5B5C0BCB0CBD9C2CA3A00000085
:1022E00041542B574C524154453D32332C3500005C
:1022F0000D0AB6C1C8A1D0C5B5C03A0041542B578C
:102300004C524154453F00000D0AC5E4D6C3B7A264
:10231000C9E4B9A6C2CA3A0041542B54504F57459C
:10232000523D33000D0AB2E9D1AFB7A2C9E4B9A654
:10233000C2CA3A0041542B54504F5745523F0000F7
:102340000D0AC5E4D6C3B9A4D7F7C4A3CABD00001B
:1023500041542B43574D4F44453D30000D0AB2E9DF
:10236000D1AFB9A4D7F7C4A3CABD000041542B43D1
:10237000574D4F44453F00000D0AC5E4D6C3B7A2F0
:10238000CBCDD7B4CCAC000041542B544D4F444579
:102390003D3100000D0AB2E9D1AFB7A2CBCDD7B421
:1023A000CCAC000041542B544D4F44453F0000003D
:1023B0000D0AC5E4D6C3CBAFC3DFCAB1BCE400008D
:1023C00041542B574C54494D453D30000D0AB2E95C
:1023D000D1AFCBAFC3DFCAB1BCE4000041542B572F
:1023E0004C54494D453F00000D0AC5E4D6C3B2A880
:1023F000CCD8C2CAA3ACCAFDBEDDD0A3D1E9CEBB46
:102400000000000041542B554152543D372C300000
:102410000D0AB2E9D1AFB2A8CCD8C2CAA3ACCAFDEA
:10242000BEDDD0A3D1E9CEBB0000000041542B5546
:102430004152543F000000000D0AC5E4D6C3B1A3C9
:10244000B4E6C4A3CABD000041542B464C415348D6
:102450003D3000000D0A2A2A2A2A2A2A2A2A2A2A54
:102460006C6F7261C5E4D6C3CDEAB3C92A2A2A2AA1
:102470002A2A2A2A2A2A2A2A0D0A000000BFFEE751
:102480007047000070B5002100230F22C47804B308
:10249000154C246804F4E064C4F5E064210AC1F139
:1024A0000403CA40447804FA03F1847814402143B9
:1024B00009010E4C0678A155047804F01F0501248B
:1024C000AC4005786D11AD0005F1E025C5F800417F
:1024D00009E0047804F01F050124AC40044D06789F
:1024E000761145F8264070BD0CED00E000E400E0F8
:1024F00080E100E002490143024A11607047000098
:102500000000FA050CED00E070B50546002400BFA0
:102510000A2000F057FF18E029460DA002F01EF92E
:10252000142000F04FFFFFF771FC044621460AA07B
:10253000FDF700FF022C04D10BA0FDF7FBFE0024E9
:1025400003E014B90DA0FDF7F5FE002CE4D070BD3A
:1025500025730D0A000000004C6F72615F537461B7
:1025600074653A25640D0A00B2E9D1AFCAB1BDD392
:10257000CAD5B5BD4552524F520D0A00B2E9D1AF8E
:10258000BBB9CEB4BDD3CAD5CDEA0D0A0000000058
:1025900029B1064AD2690243044BDA6104E0034AD6
:1025A000D2698243014BDA6170470000001002409B
:1025B00029B1064A12690243044B1A6104E0034A36
:1025C00012698243014B1A617047000000100240FB
:1025D00029B1064A92690243044B9A6104E0034A16
:1025E00092698243014B9A617047000000100240DB
:1025F00029B1064AD2680243044BDA6004E0034A78
:10260000D2688243014BDA6070470000001002403C
:1026100030B500210022002400232D4D6D6805F007
:102620000C0121B1042905D0082923D105E0294D49
:10263000056022E0274D05601FE0254D6D6805F41B
:102640007012234D6D6805F48034022505EB92422B
:102650001CB9214D554305600BE01D4D6D6805F417
:1026600000351DB11C4D5543056002E0194D554321
:10267000056002E0174D056000BF00BF144D6D6896
:1026800005F0F0010909154D6B5C0568DD404560FA
:102690000F4D6D6805F4E061090A104D6B5C4568EB
:1026A000DD4085600A4D6D6805F46051C90A0B4D27
:1026B0006B5C4568DD40C560054D6D6805F44041C3
:1026C000890B074D6B5CC568B5FBF3F5056130BD43
:1026D0000010024000127A0000093D005200002064
:1026E0006200002070B50546002400BF0A2000F0FB
:1026F00069FE18E029460DA002F030F8142000F021
:1027000061FEFFF783FB044621460AA0FDF712FE97
:10271000022C04D10BA0FDF70DFE002403E014B938
:102720000DA0FDF707FE002CE4D070BD25730D0A47
:10273000000000004C6F72615F53746174653A254C
:10274000640D0A00C9E8D6C3CAB1BDD3CAD5B5BDA8
:102750004552524F520D0A00BBB9CEB4BDD3CAD5B3
:10276000CDEA0D0A000000002DE9F04780460E4634
:1027700017461C464FF000090025404602F016F8A7
:10278000304602F013F8384602F010F82046FDF704
:1027900079FF814603E0605D02F008F86D1C4D454D
:1027A000F9DD0D2002F002F80A2001F0FFFFBDE87C
:1027B000F08710B500F002F810BD00000CB5002045
:1027C000019000903348006840F48030314908603F
:1027D00000BF3048006800F4003000900198401CB1
:1027E0000190009818B90198B0F5A06FF1D129486F
:1027F000006800F4003010B10120009001E00020DA
:1028000000900098012843D12348006840F0100050
:10281000214908600846006820F003000860084667
:10282000006840F0020008601A4840681949486092
:102830000846406848600846406840F48060486048
:102840000846406820F47C1048600846406840F420
:10285000E81048600846006840F08070086000BFDB
:102860000C48006800F000700028F9D00948406862
:1028700020F00300074948600846406840F0020025
:10288000486000BF0348406800F00C000828F9D1F8
:102890000CBD000000100240002002402DE9FE4364
:1028A000044620780509207800F00F0660780709B3
:1028B000607800F00F084FF47A70684306EBC601A9
:1028C00001EB061100EB810007EB870100EB4100F3
:1028D00040441A4908803B463246294618A0CDF8A4
:1028E0000080FDF727FDA078004000F00F0013499D
:1028F0008870E078004000F00F00C8702079004038
:1029000000F00F0008716079004000F00F0048717E
:10291000A079004000F00F0088710846807949795D
:10292000064A1279CDE9002102900448C3788278E2
:1029300001880DA0FDF7FEFCBDE8FE8334000020F9
:102940007931203D2025642C207932203D202564DA
:102950002C207933203D2025642C207934203D2003
:1029600025640D0A00000000796561723A25642C27
:10297000206D6F6E3A25642C206461793A25642CB1
:1029800020686F75723A25642C206D696E756D3AFA
:1029900025642C207365633A25640D0A000000004D
:1029A000042808D14FF0E021096941F004014FF0FB
:1029B000E022116107E04FF0E021096921F00401F4
:1029C0004FF0E0221161704710B503F0F7F90128CC
:1029D00001D002F067FE10BD10B51348006840F04A
:1029E00001001149086008464068104908400E4936
:1029F0004860084600680E4908400B4908600846D0
:102A0000006820F4802008600846406820F4FE003A
:102A100048604FF41F008860FFF7CBFE4FF0006066
:102A20000449086010BD0000001002400000FFF8DB
:102A3000FFFFF6FE08ED00E010B50121074800F0A9
:102A40001AFA012804D106480068401C04490860AD
:102A50000121024800F000FA10BD0000000400400F
:102A60003000002038B595A0FDF764FC012197489F
:102A700000F001FA012877D19548008840F4004021
:102A80009349088008460088C0F30D0191A0FDF726
:102A900051FC974997A0FDF74DFC98A19448FDF78C
:102AA000DFFD58B100208A4908804FF4C871904872
:102AB000FDF754FE012092490870D9E091A18C489D
:102AC000FDF7CEFD58B10020814908804FF4C87150
:102AD0008748FDF743FE022089490870C8E08BA1B2
:102AE0008348FDF7BDFDA0B10020794908804FF46F
:102AF000C8717F48FDF732FE6A46012185480068AB
:102B000002F070FC0446002CD7D183A0FDF712FC24
:102B1000AEE088A17648FDF7A3FDA0B100206C4986
:102B200008804FF4C8717248FDF718FE6A4602210A
:102B30007848006802F056FC0446002CBDD17FA006
:102B4000FDF7F8FB94E084A16948FDF789FD08B31F
:102B500000205F4908806A4604216E48006802F040
:102B600041FC044624B900E097E07DA0FDF7E2FBBC
:102B700082A15F48FDF774FD0546291D81A0FDF780
:102B8000D9FB2846FFF78AFE4FF4C8715848FDF775
:102B9000E5FD6DE07EA15648FDF762FDF8B100202D
:102BA0004B4908806A4608215A48006802F01AFC1E
:102BB000044614B978A0FDF7BDFB70A14C48FDF7A1
:102BC0004FFD0546291D6FA0FDF7B4FB2846FFF712
:102BD00065FE4FF4C8714648FDF7C0FD48E075A199
:102BE0004348FDF73DFDF8B10020394908806A46A9
:102BF00010214848006802F0F5FB044614B96FA0A4
:102C0000FDF798FB5DA13A48FDF72AFD0546291D11
:102C10005CA0FDF78FFB2846FFF740FE4FF4C8711C
:102C20003348FDF79BFD23E06BA13148FDF718FD0C
:102C3000F0B10020264908806A4620213548006806
:102C400002F0D0FB044614B965A0FDF773FB4BA15D
:102C50002748FDF705FD0546291D4AA0FDF76AFB3B
:102C60002846FFF71BFE4FF4C8712148FDF776FD9B
:102C700042A11F48FDF7F4FC58B140A11C48FDF7E4
:102C8000EFFC0546291D3FA0FDF754FB2846FFF742
:102C900005FE00210D4800F0E2F800BF009838B1B1
:102CA0004FF0805055490860BFF34F8FBFF36F8FCF
:102CB00000BF0121054800F0CFF838BDE8A7A6E520
:102CC0008F91E4B8ADE696AD0D0A00000008004013
:102CD00040000020E68EA5E694B6E5AE8CE688902E
:102CE0002C20E995BFE5BAA625640D0A0000000076
:102CF0001001002025730D0A000000004F4B00005A
:102D00003C0000204552524F520000007374617223
:102D10007400000014000020726563656976652008
:102D200073746172742C7365742031206572726FD4
:102D3000720D0A007265626F6F74000072656365E0
:102D4000697665207265626F6F742C7365742031CB
:102D5000206572726F720A006E616D65310000004D
:102D600072656365697665206E616D653120736596
:102D7000742031206572726F720D0A0074696D657E
:102D80000000000074696D653A25730D0A000000AB
:102D90006E616D653200000072656365697665205D
:102DA0006E616D6532207365742031206572726FBB
:102DB000720D0A006E616D65330000007265636517
:102DC000697665206E616D653320736574203120EE
:102DD0006572726F720D0A006E616D6534000000DD
:102DE00072656365697665206E616D653420736513
:102DF000742031206572726F720D0A0004ED00E0DC
:102E00007FB505460C4601210420FFF7C1FBADF854
:102E10000850ADF804400020ADF80A00ADF80600F7
:102E200001A90C4800F044F801221146094800F0BD
:102E300033F81E208DF8000006208DF801000020D8
:102E40008DF8020001208DF803006846FFF71AFB99
:102E50007FBD000000080040CA430282704721B1D4
:102E6000028842F00102028004E002884FF6FE73FD
:102E70001A400280704730B502460020002300242B
:102E8000158A05EA0103958905EA010413B10CB11D
:102E9000012000E0002030BD1AB183890B438381FB
:102EA00002E083898B4383817047818470470000EF
:102EB000002202881D4B98420ED01D4B98420BD029
:102EC000B0F1804F08D01B4B984205D01A4B984266
:102ED00002D01A4B984204D14FF68F731A404B8898
:102EE0001A43174B984207D0164B984204D04FF61E
:102EF000FF431A40CB881A4302808B8883850B8856
:102F000003850A4B98420BD0094B984208D00E4BD0
:102F1000984205D00D4B984202D00D4B984201D1FA
:102F20000B7A03860123838270470000002C014046
:102F3000003401400004004000080040000C004044
:102F400000100040001400400040014000440140D7
:102F50000048014010B540F225511D4800F0DDF851
:102F600010B31B4800F094F9C4B21A48008800F46A
:102F70000040C8B91748008800F4804060B10A2CAE
:102F800003D000201349088020E01248008840F454
:102F900000401049088019E00D2C06D10D4800882A
:102FA00040F480400B49088010E00A480088C0F3D4
:102FB0000D0009490C5407480088401C0549088049
:102FC00008460088C72801DD0020088010BD0000E9
:102FD0000038014050000020F804002010B540F2F5
:102FE0002551164800F099F8F8B1144800F050F94E
:102FF000C4B21348008800F40040B0B910480088FB
:10300000B0F5C87F12DA00210E48FFF74EFF0C48DA
:10301000008818B901210B48FFF721FF08490888EB
:10302000411C074A118008490C5405E004480088F7
:1030300040F400400249088010BD000000480040F4
:1030400040000020000800401001002021B18289CA
:1030500042F40052828104E082894DF6FF731A40E7
:103060008281704710B504462048844209D101216D
:103070008803FFF7BDFA00214FF48040FFF7B8FA4C
:1030800032E01B48844209D101214804FFF790FA3D
:1030900000214FF40030FFF78BFA25E015488442F9
:1030A00009D101218804FFF783FA00214FF4802021
:1030B000FFF77EFA18E01048844209D10121C804C4
:1030C000FFF776FA00214FF40020FFF771FA0BE0CA
:1030D0000A48844208D101210805FFF769FA002156
:1030E0004FF48010FFF764FA10BD00000038014073
:1030F0000044004000480040004C004000500040A8
:1031000002460020B1F5007F00D100BF13880B40BC
:103110000BB1012000E00020704770B5024600248A
:1031200000230025002040F66A16B14200D100BFFE
:10313000C1F3421501F01F03012606FA03F3012D26
:1031400002D19689334006E0022D02D1168A33401F
:1031500001E0968A33400C12012606FA04F4168820
:10316000344013B10CB1012000E0002070BDF0B577
:103170000346002400260025002040F66A17B942C5
:1031800000D100BF1846C1F3421401F01F06012709
:1031900007FA06F5012C01D10C3004E0022C01D114
:1031A000103000E014301AB107682F43076002E0C6
:1031B0000768AF430760F0BD2DE9F04786B00546CC
:1031C0000E460024A24600BFA1460027B08900B1E8
:1031D00000BF2F462C8A4CF6FF700440F088044351
:1031E0002C82AC894EF6F3100440B0883189084334
:1031F000718908430443AC81AC8A4FF6FF40044018
:10320000B0890443AC8201A8FFF702FA1F48874245
:1032100002D1DDF810A001E0DDF80CA0A88900F4CF
:10322000004040B10AEBCA0000EB0A1031684900C7
:10323000B0FBF1F807E00AEBCA0000EB0A103168B6
:103240008900B0FBF1F86420B8FBF0F0040120091C
:10325000642101FB1089A88900F4004040B13220AC
:1032600000EBC900B0FBF1F000F00700044308E0F8
:10327000322000EB09106421B0FBF1F000F00F00E8
:1032800004432C8106B0BDE8F087000000380140FF
:1032900001468888C0F308007047C1F308028280A5
:1032A000704700BFFEE7490050EAC12018BF042064
:1032B0004A0D18BF40F0010040F2FF72B2EB515FBF
:1032C00008BF40F00200012808BF052070473038D1
:1032D0000A2801D2012070470020704700BF7047C4
:1032E00010B50420FFF75CFB104800681049B0FBE4
:1032F000F1F0104908700D4800680D49B0FBF1F479
:103300004FF47A70444301200B4908804FF0E020CD
:10331000006940F002004FF0E02108610846446176
:10332000006940F00100086110BD00001C00002091
:1033300040420F00480000204A00002070B50446BB
:1033400002F03CFD012810D00B480088844206D3CF
:1033500009480088B4FBF0F5284601F0EDFC06486A
:103360000088B4FBF0F100FB11444FF47A7104FBC8
:1033700001F000F003F870BD4A00002070B503466C
:1033800000224FF0E02675690D4E367803FB06F4F7
:103390004FF0E026B16910E04FF0E026B0698842B6
:1033A0000BD0884202D20E1A324402E02E1A0E448A
:1033B00032440146A24200D300E0EDE700BF70BDF9
:1033C0004800002030B50446002504E04FF47A7030
:1033D000FFF7D4FF6D1CA542F8D330BD00BF054AEE
:1033E000128802F04002002AF9D0C2B2014B1B1D24
:1033F0001A8070470038014026E0FEF7C4FD01281E
:1034000006D002280AD003280ED0042818D111E0D3
:1034100001210E48006801F071FF11E002210B4804
:10342000006801F06BFF0BE004210848006801F020
:1034300065FF05E008210548006801F05FFF00BF57
:1034400000BF0A20FFF77AFFD7E70000180000202E
:10345000002415E0042C00D10024012000FA04F11E
:103460000848006801F04AFF601CC4B206480068C2
:10347000C0430649C1F8B4014FF4FA70FFF75EFF8C
:10348000E8E7000018000020B401224200002242B8
:103490001FB514A103C9CDE902014FF44070FFF735
:1034A00029F8FFF71DFF4FF4E13001F08FF941F6E5
:1034B0001F416320FFF7A4FCFEF768FD00F020F831
:1034C00002A8FFF7EBF90948152100239622CDE960
:1034D000001007A1094802F041FC01F04BFE00205A
:1034E00004B010BD202205071101140000000020C7
:1034F00073746172745F7461736B00002945000816
:1035000000B509494FF42072C868002100F026F880
:1035100005494FF4A0528868002100F01FF80120EF
:103520000149087400BD000068000020002200214D
:1035300006E00948C06830F8110000B1521C491C6F
:10354000B1F5A07FF5D3642050434FF4A073B0FBD6
:10355000F3F0C0B2704700006800002030B50346A9
:1035600001E003F8011B141EA2F10102F9D130BDE4
:103570002DE9F04105460E462648076826480068B2
:10358000001D01F0D1F950B92348006890F82C10C3
:103590000120884021490968814320480160681C56
:1035A000D8B9D6B11E4948681B49096888601A49CC
:1035B00082680968CA6018490968091D82685160F3
:1035C00015490968091D8160154A134909684A614E
:1035D00011460968491C11601AE07C190E48006800
:1035E0004460BC4207D20C480168091D0D480068C0
:1035F00001F0D4F90CE008480168091D0A48006888
:1036000001F0CCF909480068844201D207480460FF
:10361000BDE8F081900000207C0000209400002094
:10362000501F00208400002080000020AC000020FB
:1036300010B5044601F0D8F931480068401C304903
:1036400008603048006840B92E48046008460068A9
:1036500001280DD100F048FA0AE02B48006838B97B
:1036600028480068C06AE16A884201D82548046099
:1036700026480068401C25490860084600686064C8
:1036800094F82C10012088402149096808432049FA
:103690000860E16A01EB81011E4A02EB8101486882
:1036A000A0608268E260211D826851608160E16AE9
:1036B00001EB8101174A02EB81026261E16A01EBD1
:1036C0008101144A52F82110491CE26A02EB82027D
:1036D000104B43F8221001F0CBF90B48006868B199
:1036E00008480068C06AE16A884207D24FF08050FB
:1036F00009490860BFF34F8FBFF36F8F10BD000003
:103700008C0000207C00002098000020A8000020F1
:1037100094000020801C002004ED00E010B501F0B2
:1037200063F910480068D0B90F4801F027F90F4835
:1037300001F024F90C480E4908600C480D49086056
:1037400000221021052001F0C7FF06490860084645
:10375000006820B108A10348006801F089FA01F06F
:1037600087F910BDC4000020641F0020781F0020CE
:10377000BC000020C0000020546D72510000000009
:1037800010B516E001F030F90C48C068C468201D7F
:1037900001F0CAF80A480068401E09490860094853
:1037A0000068401E0749086001F062F9204600F0F9
:1037B0005FF8044800680028E4D110BD3C1F0020D9
:1037C0008C0000208800002070B504460D46206C57
:1037D00070B1216CE0680144E160D4E902108842D4
:1037E00001D32168E1602846226CE168FCF769FF9B
:1037F00070BD2DE9F04104460F4615464FF0000814
:10380000A66B206C48B9206800282CD1A06802F073
:10381000D5FB80460020A06025E07DB93946226CAA
:103820006068FCF74EFF216C606808446060D4E972
:103830000101884217D32068606014E03946226C89
:10384000E068FCF73EFF216CE068411AE160216806
:10385000E068884203D2216CA068411AE160022D21
:1038600001D106B1761E701CA0634046BDE8F08110
:1038700010B50446206B01F033F9204601F030F911
:1038800010BD00000146084A126812680AB90122F8
:1038900000E000220A600A6822B9034A1268D2686E
:1038A000106800E000207047BC00002030B54FF4E5
:1038B0002053174800F007042CB1C01D20F007006A
:1038C000134C041B1B1B0246124C22600024114D9A
:1038D0006C60D018083820F007000F4C20600024DE
:1038E0000D4D2D686C600C4D2D682C601146441AEE
:1038F0004C60094C24680C60084D4C682C60084DE5
:103900004C682C604FF00044064D2C6030BD000028
:103910008C1F0020D0000020D8000020E0000020F4
:10392000DC000020EC00002000BFFFF729FF064864
:1039300000680128F9D94FF0805004490860BFF3AE
:103940004F8FBFF36F8FF0E7801C002004ED00E085
:103950002DE9F04106460D4617469846069C0DB9DE
:10396000246000E02760E66325640121204601F021
:10397000F3FE84F850800020A064BDE8F0810000D0
:103980002DE9F05F82460F4690469B460A9E0C9CAE
:103990004FEA8801A522206BFCF7D8FEA8F10100B0
:1039A000216B01EB800929F0070909F0070008B92C
:1039B000012000E0002028B940F25F3223A128A0B6
:1039C000FCF7B8FC87B1002507E0795D04F134000D
:1039D0004155785D00B902E06D1C102DF5D300BF94
:1039E00000214320015502E0002084F83400202EFD
:1039F00001D2012000E0002028B940F2963213A144
:103A000017A0FCF797FC202E00D31F26E662E66481
:103A100000202065201D00F0BEFF04F1180000F01A
:103A2000BAFF2461C6F12000A061646200206065D5
:103A300084F858005A465146484600F02BFC206056
:103A40000B9808B10B980460BDE8F09F2E2E5C46E1
:103A500072656552544F535C7461736B732E6300CF
:103A60004572726F723A25732C25640D0A000000AE
:103A70002DE9F04706460D4617469846DDE90894BD
:103A80000DB1012000E0002028B940F26B120CA11A
:103A900011A0FCF74FFCFFF741FE2660A561C4F8BA
:103AA0001C80C4F82090201D00F075FF2FB194F801
:103AB000280040F0040084F82800BDE8F0870000EA
:103AC0002E2E5C4672656552544F535C74696D6569
:103AD00072732E63000000004572726F723A257394
:103AE0002C25640D0A00000010B5002407E004EB4B
:103AF00084010F4A02EB810000F040FF641C202C7F
:103B0000F5D30C4800F03AFF0B4800F037FF0B48A4
:103B100000F034FF0A4800F031FF0A4800F02EFFA1
:103B200004480949086004480849086010BD0000BD
:103B3000801C0020001F0020141F0020281F0020D0
:103B40003C1F0020501F0020800000208400002027
:103B500010B50146164800E0006803688B42FBD3AD
:103B60000246436813448B4204D143684C682344A3
:103B7000436001460A464B6813440468A34211D1CE
:103B80000C4C03682468A34208D04B68046864683E
:103B900023444B6003681B680B6005E0054B1B6802
:103BA0000B6001E003680B60884200D0016010BD2B
:103BB000D0000020D80000202DE9F04104460D4639
:103BC00016461F464FF0000865602461B5420CD8C8
:103BD000F01BA169884202D34FF0010811E0211DBA
:103BE0000948006800F0DAFE0BE0BE4204D2BD4294
:103BF00002D34FF0010804E0211D0448006800F0E2
:103C0000CDFE4046BDE8F081C0000020BC00002091
:103C100070B5054600F0E8FEA86B08B9012400E085
:103C2000002400F025FF204670BD70B5054600F069
:103C3000DBFEA86BE96B884201D1012400E000247F
:103C400000F016FF204670BDF1B50098846C002688
:103C50002CB940F6D73220A124A0FCF76BFBA06B57
:103C6000E16B884201D2012000E0002028B940F633
:103C7000D83219A11DA0FCF75DFBA06BE16B884257
:103C800027D294F94550002269462046FFF7B1FD3E
:103C90000646681C60B9606A08B9012000E000208F
:103CA000B0B904F1240002F009FA88B101260FE04E
:103CB0007F2D01D0012000E0002028B940F6F83225
:103CC00005A10AA0FCF736FB681C40B284F8450049
:103CD00000BF3046F8BD00002E2E5C46726565526E
:103CE000544F535C71756575652E63004572726F34
:103CF000723A25732C25640D0A00000070B5054644
:103D00000E460E480068C068C468201D00F00CFE16
:103D100094F8280000F0040028B1324629462046D5
:103D200000F0F8F805E094F8280000F0FE0084F8B0
:103D300028002046216A884770BD0000BC00002092
:103D400070B586B08AE0029800280CDA03AE2EB96E
:103D500040F2063247A14DA0FCF7ECFAD6E900206C
:103D6000B168904700BF0298002877DB049C606927
:103D700008B9012000E0002010B9201D00F0D4FD9A
:103D800001A800F0F3F8054602980A2864D2DFE89B
:103D900000F06305072E365306082F3700BF00BF1B
:103DA00000BF94F8280040F0010084F82800039830
:103DB000A269811803462A462046FFF7FDFEA8B1F6
:103DC00094F8280000F0040038B10398A269811823
:103DD0002A46204600F09EF805E094F8280000F0FE
:103DE000FE0084F828002046216A884735E000BF9D
:103DF00094F8280000F0FE0084F828002DE000BFB1
:103E000094F8280040F0010084F828000398A0618D
:103E1000A06908B1012000E0002028B940F2593221
:103E200014A11AA0FCF786FAA06941192B462A466C
:103E30002046FFF7C1FE10E094F8280000F00200D1
:103E400018B9204600F04CFE05E094F8280000F078
:103E5000FE0084F8280000E000BF00BF002202A995
:103E60000E48006801F072FE00287FF46CAF06B0C7
:103E700070BD00002E2E5C4672656552544F535C37
:103E800074696D6572732E63000000004572726F75
:103E9000723A25732C25640D0A000000C40000202E
:103EA000F8B505460C4601F0BFF9684600F05EF82B
:103EB0000646009820BB44B9B54206D802F09CF9EA
:103EC00031462846FFF71AFF1CE03CB10E48006857
:103ED000006808B9012000E000200446A91B224622
:103EE0000A48006800F002FF02F086F950B94FF06E
:103EF000805007490860BFF34F8FBFF36F8F01E019
:103F000002F07AF9F8BD0000C0000020C4000020D3
:103F100004ED00E070B504460D46164604E0A069C5
:103F200005442046216A8847A06941192B4632463C
:103F30002046FFF741FE0028F1D170BD0948006816
:103F4000006808B9012000E0002020B14FF0FF30E8
:103F50000549086005E003480068C0680068024938
:103F60000860704780000020AC00002070B5044657
:103F700001F034FF054607480068854204D200F08E
:103F80000BF80120206001E000202060014805605E
:103F9000284670BDCC00002070B508E00D480068D0
:103FA000C06804684FF0FF312046FFF7A7FE0948BC
:103FB0000068006808B9012000E000200028EDD06A
:103FC0000448056804480068024908600248056022
:103FD00070BD0000BC000020C00000200B4800683D
:103FE000401C08B9012000E0002020B9CE2208A121
:103FF00012A0FCF79FF900BF502080F31188BFF397
:104000004F8FBFF36F8F00BF00BFFEE7F0000020AF
:104010002E2E5C4672656552544F535C706F7274FD
:1040200061626C655C525644535C41524D5F434D36
:10403000335C706F72742E63000000004572726F03
:10404000723A25732C25640D0A00000010B5034652
:10405000002022B903EA010434B1012004E003EA9C
:1040600001048C4200D1012010BD08B500BF684694
:10407000FFF708FC044620460099FFF711FFFFF701
:104080005FFEF4E770B5044600F0AEFC94F94550CD
:1040900019E0A06C30B12046FFF7D6FD88B100F0E2
:1040A0001BFF0EE0606A08B9012000E0002038B96B
:1040B00004F1240002F002F818B100F00DFF00E056
:1040C00003E0681E45B2002DE3DC00BFFF2084F84A
:1040D000450000F0CDFC00F087FC94F9445010E05E
:1040E000206908B9012000E0002048B904F110005F
:1040F00001F0E4FF08B100F0EFFE681E45B200E0F9
:1041000001E0002DECDC00BFFF2084F8440000F04B
:10411000AFFC70BD2DE9F04104464FF0000801F0FE
:1041200083F84848006808B9FFF7C0FB46480068B4
:104130002040002873D114B304F10800A0421ED916
:10414000083404F00700D8B104F00700C0F10800FB
:104150002044A04211D904F00700C0F10800044433
:1041600004F0070008B9012000E0002040B99C22BB
:1041700036A140A0FCF7DEF802E0002400E00024B5
:10418000002C4CD03F480068844248D83E4E304610
:10419000056801E02E462D686868A04202D22868B2
:1041A0000028F7D127480068854238D0306800F1F0
:1041B0000808286830606868001B102813D92F1978
:1041C00007F0070008B9012000E0002020B9CF2245
:1041D0001EA128A0FCF7AEF86868001B78606C6030
:1041E0003846FFF7B5FC274968680968081A254969
:1041F00008600846006825490968884203D22148BA
:1042000000682249086010496868096808436860C6
:10421000002028601E480068401C1D49086001F00D
:10422000EBFF08F0070008B9012000E0002028B9E2
:104230004FF4887205A10FA0FCF77CF84046BDE85A
:10424000F0810000D8000020EC0000202E2E5C46FB
:1042500072656552544F535C706F727461626C6525
:104260005C4D656D4D616E675C686561705F342E95
:10427000630000004572726F723A25732C25640D3D
:104280000A000000DC000020D0000020E000002038
:10429000E4000020001F4FF080730360001F21F036
:1042A00001030360001F034B0360143802602038D1
:1042B00070470000DD3F00089CB0ABE05648006846
:1042C00000286ED04FF0FF30002301221F21009004
:1042D0005248006801F098F80446002CF1D050488C
:1042E0000378008802124E4801884EA0FCF722F89D
:1042F000042C3DD004DC012C07D0022C1ED11EE082
:10430000082C4FD0102CF9D166E04BA0FCF712F826
:104310004348807942494979414A1279CDE90021DF
:1043200002903F48C378827849A103A8FCF70EF8B1
:1043300003AB172202210020FEF716FA66E04AA01E
:10434000FBF7F8FF364881794079354A1279CDE993
:10435000002002913248C378827849A103A8FBF774
:10436000F5FF03AB172202210020FEF7FDF94DE017
:1043700049A0FBF7DFFF2A4881794079284A127962
:10438000CDE9002002912648C378827848A103A88D
:10439000FBF7DCFF03AB172202210020FEF7E4F954
:1043A00034E034E048A0FBF7C5FF1D4880791C4984
:1043B00049791B4A1279CDE9002102901848C37847
:1043C000827847A103A8FBF7C1FF03AB17220221A4
:1043D0000020FEF7C9F919E047A0FBF7ABFF104832
:1043E00080790F4949790E4A1279CDE9002102906E
:1043F0000B48C378827846A103A8FBF7A7FF03AB5D
:10440000172202210020FEF7AFF900BF00BF642091
:10441000FEF794FF52E7000014000020180000206F
:1044200034000020796561723A25782C2025782C9B
:104430002025780D0A00000053656E64206E616DC2
:10444000653120616E642074696D650D0A0000009D
:104450006E616D65312C2074696D653A2564256443
:10446000256425642564000053656E64206E616DCB
:10447000653220616E642074696D650D0A0000006C
:104480006E616D65322C2074696D653A2564256412
:10449000256425642564000053656E64206E616D9B
:1044A000653320616E642074696D650D0A0000003B
:1044B0006E616D65332C2074696D653A25642564E1
:1044C000256425642564000053656E64206E616D6B
:1044D000653420616E642074696D650D0A0000000A
:1044E0006E616D65342C2074696D653A25642564B0
:1044F000256425642564000053656E64206E616D3B
:10450000653520616E642074696D650D0A000000D8
:104510006E616D65352C2074696D653A256425647E
:1045200025642564256400007CB5054600F05CFA2E
:1045300000F0D6FE2349086000F0D2FE2249086050
:10454000224801231A464FF4FA71009020A001F08E
:104550001BFF23490860234802210023B422CDE930
:10456000001021A1234801F0F9FB23480321002377
:10457000B422CDE9001021A1244801F0EFFB1E4830
:1045800004210023B422CDE9001021A1244801F028
:10459000E5FB00F06DFA4FF4E13000F069F9FDF74A
:1045A00093FD01F01BFC0446002003462246012136
:1045B00000900B48006801F03DFF1A48006800F0C9
:1045C000F5FB7CBD1400002018000020011E00082F
:1045D0004175746F52656C6F6454696D65727300D8
:1045E00010000020040000206C6564305F7461736B
:1045F0006B000000513400080800002073656E64F1
:10460000646174615F7461736B000000B9420008FB
:104610004B65795363616E5F7461736B00000000DA
:10462000F93300080000002000B589B03EA30FCB8D
:10463000CDE90723CDE905013F48C079401C3E493B
:10464000C8710846C07902286BDB0020C871084693
:104650008079401C8871084680794979364A1279F8
:10466000354BDB78CDE90032CDE902103248837852
:10467000028832A13548FBF769FE344934A0FBF7C4
:1046800059FE2D4880793C284BDB00202A4988714F
:1046900008464079401C4871084640793C2840DB78
:1046A0000020487108460079401C087108460079CE
:1046B000182836DB002008710846C078401CC870F6
:1046C0000888C11700EB91718910A0EB810149B9ED
:1046D00019498978022905D11749897805AA515CB9
:1046E000491C03E01449897805AA515C124AD27822
:1046F000914216DA01201049C87008468078401CA3
:104700008870084680780C280BDD012088700846E8
:104710000088401C088008460088632801DD0020CE
:10472000088009B000BD0000001F1C1F1E1F1E1FB7
:104730001F1E1F1E1F00000034000020256425647A
:10474000256425642564256400000000FC00002029
:1047500074696D653A2025730D0A00000FB438B5F1
:1047600005A800900F48009A0499FBF7D1FD00209E
:1047700000900C48FBF786FF85B200240DE000BFD7
:1047800040210948FEF7BCFC0028F9D00548015D2E
:104790000548FEF782FD601C84B2AC42EFDB38BCFA
:1047A0005DF814FBA00200200048004010B504464C
:1047B00021460548FEF771FD00BF80210248FEF743
:1047C0009FFC0028F9D010BD0048004010B586B00D
:1047D0000446012144F20400FDF7FAFE4FF4007094
:1047E000ADF8140003208DF8160018208DF817007E
:1047F00005A91D48FDF72DFB4FF48060ADF81400AE
:1048000004208DF8170005A91748FDF722FB252085
:104810008DF8000009208DF8010000208DF80200BD
:1048200001208DF803006846FDF72CFE019400205E
:10483000ADF80800ADF80A00ADF80C00ADF81000B6
:104840000C20ADF80E0001A90848FEF7B5FC0122C6
:1048500040F225510548FEF78AFC01210348FEF786
:10486000F5FB06B010BD0000000801400038014013
:1048700010B586B0044601210920FDF7A9FE0121EB
:104880008804FDF785FE2548FEF7ECFB4FF48060B9
:10489000ADF8100003208DF8120018208DF81300D9
:1048A00004A91F48FDF7D5FA4FF40060ADF81000D9
:1048B00004208DF8130004A91948FDF7CAFA0094E2
:1048C0000020ADF80400ADF80600ADF80800ADF822
:1048D0000C000C20ADF80A0069461048FEF76CFC8D
:1048E00001210E48FEF7B2FB012240F225510B4890
:1048F000FEF73DFC27208DF8140008208DF81500E8
:1049000000208DF8160001208DF8170005A8FDF78E
:10491000B9FD00200349088006B010BD00480040E2
:10492000000C01404000002001460A69D1E9013035
:104930009860D1E9010358605068884201D18868C5
:104940005060002008611068401E106010687047B9
:1049500005490968886904490968C96AC1F12001E3
:10496000014A1268916170477C00002070B50446CE
:104970000D462946204600F0C1FC70BD00F108013B
:1049800041604FF0FF31816000F10801C1600161B9
:1049900000210160704700210161704710B5024697
:1049A0000B685C1C0CB9106907E002F1080000E01C
:1049B0004068446824689C42FAD944684C604C685A
:1049C000A160886041600A611468641C146010BDB5
:1049D00042684A6093688B6093685960916008618F
:1049E00003685B1C0360704710B500BF502080F364
:1049F0001188BFF34F8FBFF36F8F00BF0B48006864
:104A0000401C0A4908600846006801280DD1084882
:104A10000068C0B208B9012000E0002028B940F2C7
:104A2000731204A10EA0FBF785FC10BDF00000205E
:104A300004ED00E02E2E5C4672656552544F535CC7
:104A4000706F727461626C655C525644535C415283
:104A50004D5F434D335C706F72742E630000000035
:104A60004572726F723A25732C25640D0A0000009E
:104A700010B50B48006828B94FF4BD7209A114A005
:104A8000FBF758FC06480068401E054908600846C8
:104A9000006820B9002080F3118800BF00BF10BD5E
:104AA000F00000202E2E5C4672656552544F535C18
:104AB000706F727461626C655C525644535C415213
:104AC0004D5F434D335C706F72742E6300000000C5
:104AD0004572726F723A25732C25640D0A0000002E
:104AE00070B506463546002E3AD0083D2C461D4985
:104AF00060680968084008B1012000E0002028B97A
:104B00004FF4927218A122A0FBF714FC206808B998
:104B1000012000E0002028B940F2251212A11CA0BB
:104B2000FBF708FC0F49606809680840C0B12068BD
:104B3000B0B90C49606809688843606000F074FB94
:104B40001749606809680844154908602046FEF75F
:104B5000FFFF14480068401C1249086001F04CFB3C
:104B600070BD0000EC0000202E2E5C467265655280
:104B7000544F535C706F727461626C655C4D656D0F
:104B80004D616E675C686561705F342E6300000084
:104B90004572726F723A25732C25640D0A0000006D
:104BA000DC000020E800002000204FF0E021086138
:104BB0008861064800684FF47A71B0FBF1F0401E3E
:104BC0004FF0E02148610720086170471C00002079
:104BD00070B5FBF777FB0546102D11D305F1E020EA
:104BE00090F8F04310480078844201DB012000E097
:104BF000002028B940F2BB220CA117A0FBF79AFBBA
:104C00001948006800F4E06018490968884201D832
:104C1000012000E0002028B940F2CB2203A10EA021
:104C2000FBF788FB70BD0000F40000202E2E5C46D0
:104C300072656552544F535C706F727461626C653B
:104C40005C525644535C41524D5F434D335C706F30
:104C500072742E63000000004572726F723A257301
:104C60002C25640D0A0000000CED00E0F800002087
:104C70002DE9F04105460F4600262DB940F6CA221F
:104C800010A115A0FBF756FBBFB1002412E0164897
:104C900000EBC4004068A84203D1134800EBC406EF
:104CA0000AE036B9104850F8340010B90E4800EB4D
:104CB000C406641C082CEAD300BF0EB137607560CF
:104CC000BDE8F0812E2E5C4672656552544F535CF0
:104CD00071756575652E63004572726F723A257342
:104CE0002C25640D0A000000401C00202DE9F04135
:104CF00005460E4617462C46FFF776FE94F944000B
:104D0000401C10B9002084F8440094F94500401C70
:104D100010B9002084F84500FFF7AAFEA06B28B95F
:104D20003A46314604F1240000F006F92046FFF728
:104D3000A9F9BDE8F081000070B504460025ACB1CA
:104D40000F48006808B9012000E0002028B94FF49E
:104D5000A9620CA110A0FBF7EDFA00F065FA0021A2
:104D60002046FEF705FC01F047FA05463DB94FF035
:104D700080500D490860BFF34F8FBFF36F8F70BD38
:104D8000B80000202E2E5C4672656552544F535C6D
:104D90007461736B732E63004572726F723A257380
:104DA0002C25640D0A00000004ED00E070B50546F6
:104DB000FFF71AFE15B92F48006800E028460446A0
:104DC000201DFFF7B1FD78B9E06A00EB80002A49A9
:104DD00051F8200040B994F82C1001208840274950
:104DE0000968814325480160A06A18B104F11800E0
:104DF000FFF79AFD22480068401C214908601D48C1
:104E00000068844209D1211D1E48FFF7E1FD1E48BC
:104E10000068401C1C49086006E01C480068401EF1
:104E20001A490860FFF78AF8FFF722FE1148006868
:104E3000844202D02046FEF71BFD15480068C0B131
:104E40000C480068844214D11248006808B9012057
:104E500000E0002028B940F2DB420FA113A0FBF7CD
:104E600069FA4FF0805015490860BFF34F8FBFF3C8
:104E70006F8F70BD7C000020801C002094000020FB
:104E8000A80000203C1F0020880000208C0000208B
:104E900098000020B80000202E2E5C4672656552F6
:104EA000544F535C7461736B732E63004572726F61
:104EB000723A25732C25640D0A00000004ED00E011
:104EC00003490968016003490968416070470000AF
:104ED000A4000020900000200120014908607047D4
:104EE000A000002070B504460D462CB940F61B42C8
:104EF00007A10CA0FBF71EFA0E48016818312046E6
:104F0000FFF74CFD01212846FEF732FB70BD000083
:104F10002E2E5C4672656552544F535C7461736B00
:104F2000732E63004572726F723A25732C25640DDF
:104F30000A0000007C00002070B504460E461546AD
:104F40002CB940F6514211A115A0FBF7F3F96068A6
:104F500017490968C8611649826809680A621449D4
:104F600009681831826851601149096818318160F7
:104F70000F4909688C622168491C21600DB14FF00E
:104F8000FF3629463046FEF7F3FA70BD2E2E5C46FA
:104F900072656552544F535C7461736B732E63007A
:104FA0004572726F723A25732C25640D0A00000059
:104FB0007C00002070B504460D4616462CB940F61C
:104FC000354219A11DA0FBF7B5F92048006808B1CA
:104FD000012000E0002028B940F6394212A117A0B4
:104FE000FBF7A8F945F00040194909688861606835
:104FF00017490968C8611649826809680A62144934
:105000000968183182685160114909681831816056
:105010000F4909688C622168491C216001213046D2
:10502000FEF7A6FA70BD00002E2E5C467265655232
:10503000544F535C7461736B732E63004572726FCF
:10504000723A25732C25640D0A000000B800002078
:105050007C00002070B505460E463848006808B14F
:10506000012000E0002028B940F6B94234A139A05F
:10507000FBF760F946F000402860EC682CB940F678
:10508000C1422FA133A0FBF755F92869D5E90121C9
:105090009160D5E9011251604168A94201D1A96826
:1050A0004160002129610168491E01606069D4E9FD
:1050B00002128A60D4E902214A60211D42688A42B4
:1050C00001D1E1684160002262610168491E01600E
:1050D00094F82C100120884022490968084321498E
:1050E0000860E16A01EB81011F4A02EB8101486817
:1050F000A0608268E260211D826851608160E16A7F
:1051000001EB8101184A02EB81026261E16A01EB65
:105110008101154A52F82110491CE26A02EB820211
:10512000114B43F822101149E06A0968C96A8842A4
:1051300002D901200E49086070BD0000B8000020AF
:105140002E2E5C4672656552544F535C7461736BCE
:10515000732E63004572726F723A25732C25640DAD
:105160000A00000094000020801C00207C00002029
:10517000A00000201CB51B4800210B468222CDE96F
:10518000001019A11A4800F0E9FD0446012C02D1D3
:1051900001F016F90446012C15D100BF502080F310
:1051A0001188BFF34F8FBFF36F8F00BF4FF0FF30F9
:1051B0001049086001201049086000200F4908606C
:1051C00000F0D0F90BE0601C08B1012000E00020E5
:1051D00028B940F63F020AA10EA0FBF7ABF8114830
:1051E00000681CBDB000002049444C450000000090
:1051F00029390008AC000020980000209000002011
:105200002E2E5C4672656552544F535C7461736B0D
:10521000732E63004572726F723A25732C25640DEC
:105220000A000000B400002002480068401C014948
:1052300008607047B800002010B51B48006818B11E
:1052400001201A4908602DE000201849086018481C
:105250000068B0FA80F0C0F11F0404EB8400154927
:1052600051F8200008B1012000E0002028B940F6E4
:10527000014211A115A0FBF75DF804EB84010D4A72
:1052800002EB810041684968416000F10801426811
:105290008A4202D14168496841604168C9680F4A41
:1052A000116000BF10BD0000B8000020A000002069
:1052B00094000020801C00202E2E5C4672656552F2
:1052C000544F535C7461736B732E63004572726F3D
:1052D000723A25732C25640D0A0000007C00002022
:1052E00010B51C20FEF716FF044624B100202060F4
:1052F000201DFFF743FB204610BD00002DE9FE4FA7
:1053000007468846002001903C4600902FB940F2A5
:10531000212229A12FA0FBF70DF808F07F4008B942
:10532000012000E0002028B940F2222222A129A079
:10533000FBF700F804F1040909F108000290FFF7F7
:1053400073FFD9F80C60206840EA0800206026E06E
:10535000D6F804B035680020009005F07F4A25F0AB
:105360007F450AF0806028B92068284040B10120BC
:10537000009005E020682840A84201D1012000905B
:10538000009858B10AF0807010B10198284301903C
:10539000206840F000713046FFF75CFE5E460298E0
:1053A0008642D5D1206801998843206000F024FF0F
:1053B0002068BDE8FE8F00002E2E5C4672656552A7
:1053C000544F535C6576656E745F67726F7570736A
:1053D0002E6300004572726F723A25732C25640D9E
:1053E0000A0000002DE9F04104460D4616463346FA
:1053F0002A462146034801F06FF807463846BDE8C3
:10540000F08100006D4900082DE9FF4F83B081460F
:105410000D461746DDF840804C464FF0000A00204C
:105420000190B9F1000F05D14FF4A57241A148A038
:10543000FAF780FF05F07F4008B9012000E0002066
:1054400028B940F24B123BA141A0FAF773FF0DB10E
:10545000012000E0002028B94FF4A67235A13CA03D
:10546000FAF768FF00F0AAFC10B9B8F1000F01D1FB
:10547000012000E0002028B940F24F122DA134A0F5
:10548000FAF758FFFFF7D0FE206800902946069AE9
:105490000098FEF7DBFD0290029838B1009E4FF0B5
:1054A0000008C7B12068A843206014E0B8F1000FDD
:1054B00003D1009E012001900DE00FB14AF0807AE7
:1054C000069808B14AF0806A45EA0A014246201D62
:1054D000FFF770FD002600F08FFE8346B8F1000F45
:1054E00023D0BBF1000F07D14FF080501C4908605A
:1054F000BFF34F8FBFF36F8FFFF72AFA064606F010
:10550000007080B9FFF770FA266829463046069A7F
:10551000FEF79CFD18B117B12068A8432060012058
:105520000190FFF7A5FA26F07F46304607B0BDE8A8
:10553000F08F00002E2E5C4672656552544F535C0E
:105540006576656E745F67726F7570732E630000A9
:105550004572726F723A25732C25640D0A000000A3
:1055600004ED00E01CB53B4C204600780190FF2084
:10557000214608700846007800909DF8000000F071
:10558000F0009DF80010884201D1012000E00020C9
:1055900028B940F21F1230A13AA0FAF7CBFE9DF8CD
:1055A000000000F050003B49087007203A490860AD
:1055B00009E039480068401E374908609DF800003E
:1055C0004006000E00909DF8000000F0800080284A
:1055D000EFD031480068C0F10700042801D1012054
:1055E00000E0002028B940F233121BA125A0FAF7F1
:1055F000A1FE29480068C0F10700042801D101205C
:1056000000E0002028B94FF49E7213A11DA0FAF704
:1056100091FE2148006800021F4908600846008882
:1056200000F4E06008600B49019808701B480068AE
:1056300040F47000194908600846006840F0704066
:105640000860FFF7B1FA002015490860FAF704FE78
:1056500000201CBD00E400E02E2E5C467265655201
:10566000544F535C706F727461626C655C52564447
:10567000535C41524D5F434D335C706F72742E63C7
:10568000000000004572726F723A25732C25640D7C
:105690000A000000F4000020F800002020ED00E0E7
:1056A000F000002010B500BF502080F31188BFF338
:1056B0004F8FBFF36F8F00BF00F096FB18B14FF014
:1056C00080500449086000BF002080F3118800BFAB
:1056D00010BD000004ED00E02DE9F84305460E463C
:1056E00017460024E5B1601EB0FBF5F0B04217D3B9
:1056F00005FB06F010F1550F12D805FB06F909F16C
:105700005400FEF707FD04468CB1A04608F154088A
:105710003B464246314628460094FEF719F906E01A
:105720002CB94FF4E37203A107A0FAF703FE204659
:10573000BDE8F8832E2E5C4672656552544F535C6B
:1057400071756575652E63004572726F723A2573C7
:105750002C25640D0A0000002DE9F04105460E4697
:1057600001272C462CB94FF488722CA130A0FAF7EF
:10577000E1FD002C42D0E06B00283FD04FF0FF311C
:10578000E06BB1FBF0F0216C884237D3FFF72CF9C6
:10579000D4E90F12206801FB0200A0600020A06382
:1057A00020686060E06B401E226C216800FB0211E3
:1057B000E160FF2084F8440084F845009EB9206928
:1057C00008B9012000E00020A8B904F1100000F0A1
:1057D00075FC80B14FF0805019490860BFF34F8FBE
:1057E000BFF36F8F07E004F11000FFF7C7F804F173
:1057F0002400FFF7C3F8FFF73BF900E000270FB1E3
:10580000012000E0002028B940F2451203A108A0C1
:10581000FAF790FD3846BDE8F08100002E2E5C4678
:1058200072656552544F535C71756575652E6300E2
:105830004572726F723A25732C25640D0A000000C0
:1058400004ED00E02DE9FF4782B0064688461D467C
:105850004FF0000934462CB940F22E3264A169A001
:10586000FAF768FDB8F1000F01D1206C08B90120EA
:1058700000E0002028B940F22F325DA161A0FAF7C4
:1058800059FD022D02D1E06B012801D1012000E079
:10589000002028B94FF44C7255A15AA0FAF74AFDDE
:1058A00000F08CFA08B9049808B9012000E0002043
:1058B00028B940F233324EA152A0FAF73BFD00BFA7
:1058C000FFF792F8A06BE16B884201D3022D3ED125
:1058D000D4F838A02A4641462046FDF78AFF0746FD
:1058E000A06C88B1022D02D1BAF1000F29D1204657
:1058F000FEF7AAF928B34FF0805046490860BFF37D
:105900004F8FBFF36F8F1CE0606A08B9012000E081
:10591000002068B904F1240000F0D0FB88B14FF0FA
:1059200080503C490860BFF34F8FBFF36F8F08E092
:105930003FB14FF0805037490860BFF34F8FBFF33E
:105940006F8FFFF795F8012006B0BDE8F087049847
:1059500018B9FFF78DF80020F6E7B9F1000F04D170
:105960006846FFF7ADFA4FF00109FFF781F8FFF73E
:105970005BFCFFF739F894F94400401C10B9002093
:1059800084F8440094F94500401C10B9002084F8C4
:105990004500FFF76DF804A9684600F08FF9F8B9E3
:1059A0002046FEF742F9A8B104F110000499FFF770
:1059B00099FA2046FEF766FB00F01EFC00287FF4F3
:1059C0007FAF4FF0805013490860BFF34F8FBFF394
:1059D0006F8F75E72046FEF755FB00F00DFC6FE773
:1059E0002046FEF74FFB00F007FC0020ACE700006C
:1059F0002E2E5C4672656552544F535C7175657509
:105A0000652E63004572726F723A25732C25640D02
:105A10000A00000004ED00E02DE9F84F80468B46B7
:105A200015461E4644462CB940F202423EA143A010
:105A3000FAF780FCBBF1000F01D1206C08B90120FE
:105A400000E0002028B940F2034237A13BA0FAF75A
:105A500071FC022E02D1E06B012801D1012000E08F
:105A6000002028B940F204422FA134A0FAF762FCCA
:105A7000FFF7AEF800BF5021EFF3118081F31188DA
:105A8000BFF34F8FBFF36F8F00BF0746A06BE16B73
:105A9000884201D3022E3DD194F945A0A06B00901D
:105AA000324659462046FDF7A4FE0AF10100E0B94E
:105AB000A06C58B1022E01D1009840BB2046FEF7E1
:105AC000C3F820B31DB30120286020E0606A08B944
:105AD000012000E00020D0B904F1240000F0EEFA2B
